:020000000328D3
:100006000730831203139F00831685012C30860068
:1000160083128501860106198828A001A101803076
:100026002106F00080307002031D1B2803302002D9
:1000360003184C2805158515051685160610861015
:100046000613861305138513051085108230FC00F0
:10005600DD30FD00FD0B2D28FC0B2D2800000000D7
:1000660005118511051285120610861006138613D2
:1000760005138513051085106830FC00E430FD007B
:10008600FD0B4328FC0B43280000A00A0319A10A14
:100096001228A001A10180302106F00080307002F4
:1000A600031D5728033020020318882805118511DF
:1000B6000512851206108610061386130517851776
:1000C600051485148230FC00DD30FD00FD0B692827
:1000D600FC0B692800000000051185110512851228
:1000E6000610861006138613051385130510851052
:1000F6006830FC00E430FD00FD0B7F28FC0B7F28F8
:100106000000A00A0319A10A4E288619FE28A0019C
:10011600A10180302106F00080307002031D952871
:10012600033020020318C42805158511051685120B
:1001360006148610061386170513851705108514F1
:100146004E30FC00EB30FD00FD0BA728FC0BA7286A
:1001560005118511051285120610861006138613E1
:1001660005138513051085106830FC00E430FD008A
:10017600FD0BBB28FC0BBB280000A00A0319A10A33
:100186008C28A001A10180302106F0008030700289
:10019600031DCF28033020020318FE2805118515FC
:1001A600051285160610861406178613051785137D
:1001B600051485104E30FC00EB30FD00FD0BE128E8
:1001C600FC0BE12805118511051285120610861013
:1001D6000613861305138513051085106830FC0079
:1001E600E430FD00FD0BF528FC0BF5280000A00A05
:1001F6000319A10AC628861A7229A001A101803016
:100206002106F00080307002031D0B290330200206
:100216000318392905158511051685120614861049
:100226000613861705138517051085142730FC005D
:10023600F530FD00FD0B1D29FC0B1D29051185114F
:1002460005128512061086100613861305138513EC
:10025600051085102730FC00F530FD00FD0B312917
:10026600FC0B3129A00A0319A10A0229A001A10148
:1002760080302106F00080307002031D44290330CF
:100286002002031872290511851505128516061018
:10029600861406178613051785130514851027304F
:1002A600FC00F530FD00FD0B5629FC0B5629051107
:1002B600851105128512061086100613861305137E
:1002C6008513051085102730FC00F530FD00FD0B69
:1002D6006A29FC0B6A29A00A0319A10A3B290E28E0
:0202E60073297A
:02400E00592136
:00000001FF
