:020000000328D3
:100006000730831203139F002030831685002430A7
:10001600860083128501860106198928A001A1019F
:1000260080302106F00080307002031D1C2803304A
:10003600200203184D280515851505168615061088
:100046008610061386130513851305108510823056
:10005600FC00DD30FD00FD0B2E28FC0B2E280000D9
:10006600000005118511051286110610861006136B
:10007600861305138513051085106830FC00E430DF
:10008600FD00FD0B4428FC0B44280000A00A0319C0
:10009600A10A1328A001A10180302106F0008030BA
:1000A6007002031D58280330200203188928051101
:1000B600851105128611061086100613861305177C
:1000C6008517051485148230FC00DD30FD00FD0B1C
:1000D6006A28FC0B6A28000000000511851105122C
:1000E6008611061086100613861305138513051050
:1000F60085106830FC00E430FD00FD0B8028FC0B09
:1001060080280000A00A0319A10A4F28851A792B16
:100116000511851105128611061086100613861321
:1001260005138513051085100230FB000430FC0012
:10013600BA30FD00FD0B9D28FC0B9D28FB0B9D286E
:100146000000051585110512861106108610061386
:10015600861305138513051085100230FB00043045
:10016600FC00BA30FD00FD0BB628FC0BB628FB0BD5
:10017600B62800000515851505128611061086108D
:100186000613861305138513051085100230FB0030
:100196000430FC00BA30FD00FD0BCF28FC0BCF2845
:1001A600FB0BCF28000005158515051686110610D0
:1001B6008610061386130513851305108510023065
:1001C600FB000430FC00BA30FD00FD0BE828FC0BF8
:1001D600E828FB0BE828000005118515051686158D
:1001E6000610861006138613051385130510851051
:1001F6000230FB000430FC00BA30FD00FD0B012983
:10020600FC0B0129FB0B01290000051185110516C0
:100216008615061486100613861305138513051016
:1002260085100230FB000430FC00BA30FD00FD0BE7
:100236001A29FC0B1A29FB0B1A2900000511851136
:1002460005128615061486140613861305138513E0
:10025600051085100230FB000430FC00BA30FD00AA
:10026600FD0B3329FC0B3329FB0B33290000051149
:1002760085110512861106148614061786130513B2
:100286008513051085100230FB000430FC00BA30DF
:10029600FD00FD0B4C29FC0B4C29FB0B4C290000E7
:1002A6000511851105128611061086140617861784
:1002B60005138513051085100230FB000430FC0081
:1002C600BA30FD00FD0B6529FC0B6529FB0B652982
:1002D60000000511851105128611061086100617F5
:1002E600861705178513051085100230FB000430AC
:1002F600FC00BA30FD00FD0B7E29FC0B7E29FB0BB2
:100306007E2900000511851105128611061086103A
:100316000613861705178517051085100230FB0092
:100326000430FC00BA30FD00FD0B9729FC0B972921
:10033600FB0B972900000511851105128611061081
:1003460086100613861305178517051485100230C7
:10035600FB000430FC00BA30FD00FD0BB029FC0B9D
:10036600B029FB0BB0290000051185110512861175
:1003760006108610061386130513851705148514B3
:100386000230FB000430FC00BA30FD00FD0BC92929
:10039600FC0BC929FB0BC9290000051185110512A3
:1003A6008611061086100613861305138513051489
:1003B60085140230FB000430FC00BA30FD00FD0B52
:1003C600E229FC0BE229FB0BE2290000051185114D
:1003D600051286110610861006138613051385135B
:1003E600051085140230FB000430FC00BA30FD0015
:1003F600FD0BFB29FC0BFB29FB0BFB290000051160
:10040600851105128611061086100613861305132C
:100416008513051085100230FB000430FC00BA304D
:10042600FD00FD0B142AFC0B142AFB0B142A0000FA
:1004360005118511051286110610861006138613FE
:1004460005138513051085140230FB000430FC00EB
:10045600BA30FD00FD0B2D2AFC0B2D2AFB0B2D2A95
:100466000000051185110512861106108610061367
:10047600861305138513051485140230FB0004301A
:10048600FC00BA30FD00FD0B462AFC0B462AFB0B8E
:10049600462A0000051185110512861106108610E0
:1004A6000613861305138517051485140230FB0001
:1004B6000430FC00BA30FD00FD0B5F2AFC0B5F2AFE
:1004C600FB0B5F2A00000511851105128611061027
:1004D6008610061386130517851705148510023036
:1004E600FB000430FC00BA30FD00FD0B782AFC0B43
:1004F600782AFB0B782A0000051185110512861152
:100506000610861006138617051785170510851021
:100516000230FB000430FC00BA30FD00FD0B912ACE
:10052600FC0B912AFB0B912A00000511851105127F
:1005360086110610861006178617051785130510EF
:1005460085100230FB000430FC00BA30FD00FD0BC4
:10055600AA2AFC0BAA2AFB0BAA2A00000511851160
:1005660005128611061086140617861705138513BD
:10057600051085100230FB000430FC00BA30FD0087
:10058600FD0BC32AFC0BC32AFB0BC32A0000051173
:10059600851105128611061486140617861305138F
:1005A6008513051085100230FB000430FC00BA30BC
:1005B600FD00FD0BDC2AFC0BDC2AFB0BDC2A000011
:1005C6000511851105128615061486140613861361
:1005D60005138513051085100230FB000430FC005E
:1005E600BA30FD00FD0BF52AFC0BF52AFB0BF52AAC
:1005F60000000511851105168615061486100613CA
:10060600861305138513051085100230FB00043090
:10061600FC00BA30FD00FD0B0E2BFC0B0E2BFB0B6A
:100626000E2B000005118515051686150610861079
:100636000613861305138513051085100230FB007B
:100646000430FC00BA30FD00FD0B272BFC0B272BDA
:10065600FB0B272B000005158515051686110610C0
:1006660086100613861305138513051085100230B0
:10067600FB000430FC00BA30FD00FD0B402BFC0BE8
:10068600402BFB0B402B0000051585150512861126
:10069600061086100613861305138513051085109C
:1006A6000230FB000430FC00BA30FD00FD0B592B74
:1006B600FC0B592BFB0B592B000005158511051258
:1006C600861106108610061386130513851305106A
:1006D60085100230FB000430FC00BA30FD00FD0B33
:1006E600722BFC0B722BFB0B722B0000861AED2B68
:1006F600A001A10180302106F00080307002031DA8
:10070600862B033020020318B42B05158511051618
:10071600861106148610061386170513851705100D
:1007260085142730FC00F530FD00FD0B982BFC0BE3
:10073600982B0511851105128611061086100613D1
:10074600861305138513051085102730FC00F53038
:10075600FD00FD0BAC2BFC0BAC2BA00A0319A10A68
:100766007D2BA001A10180302106F00080307002AF
:10077600031DBF2B033020020318ED2B0511851531
:100786000512861506108614061786130517851397
:10079600051485102730FC00F530FD00FD0BD12B2C
:1007A600FC0BD12B0511851105128611061086103A
:1007B6000613861305138513051085102730FC00D4
:1007C600F530FD00FD0BE52BFC0BE52BA00A03190C
:0807D600A10AB62B0F28EE2B3F
:02400E00592136
:00000001FF
